:070897000E11131519110EDB
:02080000AD0742
:10080200E4FBEBC394087480948050237E007480D0
:10081200A803088006CEA2E713CE13D8F8FFEDF5A1
:1008220082EF558224FF9281C280D2800B80D3C294
:0308320082D282ED
:0108350022A0
:10083600E4F508C3E50894077480948050F2E5084F
:1008460090089793FF120800AF08A8077401088064
:1008560002C333D8FCF5B07F017E0012086BE4F5C5
:05086600B0050880CE82
:10086B00E4FDFCC3ED9FEC9E5015E4FBFA0BBB00C3
:0F087B00010AEB647B4A70F50DBD00010C80E4AF
:01088A00224B
:0300000002088B68
:0C088B00787FE4F6D8FD7581080208367D
:00000001FF
