:100A5500120B16120C6C8F08E50875F064842430AF
:100A6500FB7D017F01120C33E50875F06484E5F028
:100A750075F00A842430FF120C5CE50875F00A84D1
:100A8500E5F02430FF120C5CAC08E41209107B4839
:100A95007AE1799C78411208001209448E098F0A7F
:100AA5007C037DE81209F2EF2430FB7D017F021201
:100AB5000C337F2E120C5CAE09AF0A7C037DE81265
:100AC50009F27E007F64CFCDCFCECCCE1209F2EFF6
:100AD5002430FF120C5CAE09AF0A7C007D6412095C
:100AE500F27E007F0ACFCDCFCECCCE1209F2EF2415
:100AF50030FF120C5CAE09AF0A7C007D0A1209F2C8
:100B0500ED2430FF120C5C7FF47E01120BDC020A2F
:010B15005887
:100C4A00EF339287EFA2E69286A2E59285A2E4921A
:020C5A008422F2
:070C1B00120C4AD281C281D4
:100C2200EFA2E39287A2E29286A2E19285139284D6
:010C3200229F
:070C8800AE071FEE70FA2217
:100B1600C280C2817F147E00120BDC7F03120C227E
:100B2600D281C2817F057E00120BDC7F03120C226C
:100B3600D281C2817F64120C887F03120C22D2817B
:100B4600C2817F017E00120BDC7F02120C22D28151
:100B5600C2811F7E00120BDC7F28120B9C7F0C12B9
:0C0B66000B9C7F01120B9C7F06020B9C75
:100B9C00AE07C280120C1BD281C281EF24FE60030F
:100BAC000470077F027E00020BDC7F25120C88226A
:100C5C00AE07D280120C1BD281C2817F29020C8874
:020C33008B0B29
:100C3500BF01047F8080027FC0ED142FFF120B9C43
:050C4500AF0B020C5C86
:060BBC008B0C8A0D890E6E
:100BC200E4FDAB0CAA0DA90E8D827583001209C536
:090BD200FF6006120C5C0D80E9C5
:010BDB0022F7
:060BFC008B0F8A10891125
:100C0200BF01047F8080027FC0ED142FFF120B9C76
:090C1200AB0FAA10A911020BBCE2
:060B72008B128A138914A6
:100B7800EF75F008A42440FF120B9CE4FDAB12AA09
:100B880013A9148D827583001209C5FF120C5C0D20
:030B9800BD08EAAB
:010B9B002237
:100BDC00E4FDFCC3ED9FEC9E5015E4FBFA0BBB004F
:0F0BEC00010AEB647B4A70F50DBD00010C80E43B
:010BFB0022D7
:0F0C6C00C2B0C2B2D2B220B3FDC2B1AFA0D2B1FA
:010C7B002256
:10080000EC4D6011E8497017ED33EC3304600DE4F2
:10081000FCFFFEFD22E933E8330470F80209B01250
:10082000097B58046009E4CC248150062850090251
:1008300009BA2840030209B7C0E0EB4A7044B98006
:1008400006D0E0FB0209A6EF4E701CBD8008EBFF4E
:10085000EAFEE9FD80EBE98DF0A4FEE5F00208E98F
:10086000E9CDF9EAFEEBFFEF89F0A4FCE5F0CE89D3
:10087000F0A42EFFE435F0CD89F0A42DFEE435F090
:100880008067EF4E7005BD80D780C3EF8BF0A4ACBE
:10089000F0EE8BF0A42CFCE435F0F8EF8AF0A42CF9
:1008A000E5F038FCE433CB8DF0A42CFCE5F03BF80C
:1008B000EE8AF0A42CFCE5F038F8E433CF89F0A4FC
:1008C0002CFCE5F038CF3400CE89F0A42FFFE5F002
:1008D0003EFEE433C98DF0A42EFEE5F039CD8AF05A
:1008E000A42FFFE5F03EFEE43DFD33D0E0FB5007D2
:1008F0000BBB000F0209BAEC2CFCEF33FFEE33FE0A
:06090000ED33FD02099237
:1009060075F020800E75F010800575F0087D007E6C
:10091600007F003392D530D503120A47EC334010DE
:10092600EF33FFEE33FEED33FDEC33FCD5F0ED2275
:0E093600E5F0247EA2D513CC92E7CDCEFF22B1
:10094400EDD2E7CD33EC3392D524814006E4FFFEAB
:10095400FDFC22FCE4CFCECDCC24E0501174FF800A
:10096400EDC3CC13CCCD13CDCE13CECF13CF0470A7
:07097400F030D5DE020A4756
:10097B00E9D2E7C933E833F892D5EDD2E7CD33ECC2
:07098B0033FC5002B2D5223B
:10099200EC30E7100FBF000C0EBE00080DBD0004C6
:1009A2000BEB6014A2D5EB13FCED92E7FD2274FF72
:1009B200FCFDFEFF22E480F8A2D574FF13FC7D80CB
:0309C200E480EFDF
:03000000020C7C73
:0C0C7C00787FE4F6D8FD758114020A555B
:1009C500BB010CE58229F582E5833AF583E02250E7
:1009D50006E92582F8E622BBFE06E92582F8E22231
:0D09E500E58229F582E5833AF583E493224B
:1009F200BC000BBE0029EF8DF084FFADF022E4CCE9
:100A0200F875F008EF2FFFEE33FEEC33FCEE9DECB1
:100A1200984005FCEE9DFE0FD5F0E9E4CEFD22EDF7
:100A2200F8F5F0EE8420D21CFEADF075F008EF2F41
:100A3200FFED33FD4007985006D5F0F222C398FD32
:050A42000FD5F0EA22CF
:0E0A4700C3E49FFFE49EFEE49DFDE49CFC22C0
:00000001FF
