:10000300E4F5A0F508C3E5089408748094805013C0
:10001300E5A025E04401F5A07FC87E00120071052C
:100023000880E2E4F5A0F508C3E508940874809419
:10003300805013E5A0C3134480F5A07FC87E00124F
:060043000071050880E2D7
:010049002294
:10004A00E4F508C3E508940774809480501875A0F5
:10005A00AA7FC87E0012007175A0557FC87E001263
:06006A000071050880DDB5
:01007000226D
:08009D0012000312004A80F872
:10007100E4FDFCC3ED9FEC9E5015E4FBFA0BBB00C5
:0F008100010AEB647B4A70F50DBD00010C80E4B1
:01009000224D
:030000000200916A
:0C009100787FE4F6D8FD75810802009D20
:00000001FF
