:080800007B007A0079087D02FB
:080808008B0A8A0B890C8D0D8F
:10081000E4F50EE50EC3950D5050AB0A7C00E50CD7
:10082000250DF9EC350BFAC3E9950EF9EA9400FAB7
:1008300090FFFF1208AFFDE4FBEBC39408748094B3
:100840008050237E007480A803088006CEA2E713A0
:10085000CE13D8F8FFEDF582EF558224FF92A1C2A6
:0E086000A0D2A00B80D3050E80A9C2A2D2A206
:01086E002267
:10086F00E4FFEFC3940274809480500974082FF84A
:10087F00E4F60F80ED1208007FF47E011208DCE42D
:10088F00FFEFC3940274809480500974082FF87698
:10089F00FF0F80ED1208007FF47E011208DC80C08C
:1008DC00E4FDFCC3ED9FEC9E5015E4FBFA0BBB0052
:0F08EC00010AEB647B4A70F50DBD00010C80E43E
:0108FB0022DA
:030000000208FCF7
:0C08FC00787FE4F6D8FD75810E02086FCD
:1008AF00BB010CE58229F582E5833AF583E02250FE
:1008BF0006E92582F8E622BBFE06E92582F8E22248
:0D08CF00E58229F582E5833AF583E4932262
:00000001FF
