:0A095300C0F9A4B0999282F88090D8
:0608D900C2907F067E00C4
:1008DF00C3E49FFFE49EF58CEFF58AD28C308DFD3B
:0408EF00C28CC28D68
:0108F30022E2
:10089B00C2907FE07E011208DFD2907F461E1208C5
:0E08AB00DFA290E433FD7F9A0E1208DFAF0546
:0108B900221C
:0A093F001208D9D2907F400208DFB1
:10092300C2907F3C7E001208DFD2907F0A0208DF6C
:0A094900BF010302093F1209232237
:10090C001208D9D2907F091208DFA290E433FD7F40
:06091C00371208DFAF05F1
:0109220022B2
:0208F400AD074E
:1008F6007C08AF041CEF600DED5401FF120949EDB1
:05090600C313FD80EDAC
:01090B0022C9
:1008BA007C08E4FBAF041CEF6012EBC313FB1209C4
:0E08CA000CEFC43333335480420380E8AF0395
:0108D80022FD
:1008000043890112089BEF70FA7FCC1208F47F44F1
:100810001208F47FEE7E0212087B12089BEF70FA3A
:100820007FCC1208F47FBE1208F41208BA750800D3
:100830008F091208BAEFFEEE4208E508C4F854F03A
:10084000C8E509C4540F48FD75F00A84F9ED75F048
:100850000A84ACF0E509540F75F00AA4FFE5F0C472
:10086000F854F0C8EFC4540F48FFE990095393F5CA
:0B08700080EC93F5A0EF93F5B08088BA
:10087B00E4FDFCC3ED9FEC9E5015E4FBFA0BBB00B3
:0F088B00010AEB647C4A70F50DBD00010C80E49E
:01089A00223B
:03000000020933BF
:0C093300787FE4F6D8FD75810902080009
:00000001FF
