:0A08CB00C0F9A4B0999282F8809061
:10086300120800EF600E75F00A8485F008EF75F04A
:100873000A84F509E5089008CB93F5A0C2B07F017F
:100883007E0012089FD2B0E5099008CB93F5A0C271
:0C089300B17F017E0012089FD2B180C42A
:10089F00E4FDFCC3ED9FEC9E5015E4FBFA0BBB008F
:0F08AF00010AEB647B4A70F50DBD00010C80E47B
:0108BE002217
:10080000E4FFC2902094027F0D2095027F0920967C
:10081000027F052097027F01D290C2912094027F2F
:100820000E2095027F0A2096027F062097027F0203
:10083000D291C2922094027F0F2095027F0B2096C6
:10084000027F072097027F03D292C2932094027FF7
:10085000102095027F0C2096027F082097027F04CB
:02086000D29331
:010862002273
:030000000208BF34
:0C08BF00787FE4F6D8FD7581090208631B
:00000001FF
