:0A097400C0F9A4B0999282F88090B7
:04080000AB07AA0692
:100804007C277D101208CE8F0B7C277D10AF03AEA2
:10081400021208CEAA04AB057C037DE8AF03AE0246
:100824001208CE8F0C7C037DE8AF03AE021208CE13
:10083400AA04AB057C007D64AF03AE021208CE8F20
:100844000D7C007D64AF03AE021208CEAA04AB0592
:100854007C007D0AAF03AE021208CE8F0EAE02AF4B
:10086400037C007D0A1208CE8D0FE50B900974936A
:10087400F580C2A47F017E00120948D2A4E50C9041
:10088400097493F580C2A37F017E00120948D2A3A4
:10089400E50D90097493F580C2A27F017E001209D0
:1008A40048D2A2E50E90097493F580C2A17F017E1F
:1008B40000120948D2A1E50F90097493F580C2A0F3
:0908C4007F017E00120948D2A058
:0108CD002208
:100923005389F0438905D28C858C08858A09E508AB
:10093300B58CF5F50A750A00E509420AAF0A7E008F
:0509430012080080E332
:10094800E4FDFCC3ED9FEC9E5015E4FBFA0BBB00E5
:0F095800010AEB647B4A70F50DBD00010C80E4D1
:01096700226D
:030000000209688A
:0C096800787FE4F6D8FD75810F020923AA
:1008CE00BC000BBE0029EF8DF084FFADF022E4CC0E
:1008DE00F875F008EF2FFFEE33FEEC33FCEE9DECD7
:1008EE00984005FCEE9DFE0FD5F0E9E4CEFD22ED1D
:1008FE00F8F5F0EE8420D21CFEADF075F008EF2F67
:10090E00FFED33FD4007985006D5F0F222C398FD57
:05091E000FD5F0EA22F4
:00000001FF
