:080800008B0B8A0C890D8D0E93
:10080800E4F50FE50FC3950E5050AB0B7C00E50DDA
:10081800250EF9EC350CFAC3E9950FF9EA9400FABC
:1008280090FFFF1208A2FDE4FBEBC39408748094C8
:100838008050237E007480A803088006CEA2E713A8
:10084800CE13D8F8FFEDF582EF558224FF92A1C2AE
:0E085800A0D2A00B80D3050F80A9C2A2D2A20D
:01086600226F
:1008CF00E4FDFCC3ED9FEC9E5015E4FBFA0BBB005F
:0F08DF00010AEB647B4A70F50DBD00010C80E44B
:0108EE0022E7
:0A08FB00C0F9A4B0999282F8809031
:10086700E4F508C3E50894637480948050F2E508C2
:1008770075F00A84E5F09008FB93F509E50875F033
:100887000A8493F50A7B007A0079097D0212080031
:0B0897007FF47E011208CF050880C826
:030000000208EF04
:0C08EF00787FE4F6D8FD75810F020867E1
:1008A200BB010CE58229F582E5833AF583E022500B
:1008B20006E92582F8E622BBFE06E92582F8E22255
:0D08C200E58229F582E5833AF583E493226F
:00000001FF
