:03000000020C33BC
:10080000EC4D6011E8497017ED33EC3304600DE4F2
:10081000FCFFFEFD22E933E8330470F80209B01250
:10082000097B58046009E4CC248150062850090251
:1008300009BA2840030209B7C0E0EB4A7044B98006
:1008400006D0E0FB0209A6EF4E701CBD8008EBFF4E
:10085000EAFEE9FD80EBE98DF0A4FEE5F00208E98F
:10086000E9CDF9EAFEEBFFEF89F0A4FCE5F0CE89D3
:10087000F0A42EFFE435F0CD89F0A42DFEE435F090
:100880008067EF4E7005BD80D780C3EF8BF0A4ACBE
:10089000F0EE8BF0A42CFCE435F0F8EF8AF0A42CF9
:1008A000E5F038FCE433CB8DF0A42CFCE5F03BF80C
:1008B000EE8AF0A42CFCE5F038F8E433CF89F0A4FC
:1008C0002CFCE5F038CF3400CE89F0A42FFFE5F002
:1008D0003EFEE433C98DF0A42EFEE5F039CD8AF05A
:1008E000A42FFFE5F03EFEE43DFD33D0E0FB5007D2
:1008F0000BBB000F0209BAEC2CFCEF33FFEE33FE0A
:10090000ED33FD02099275F020800E75F010800520
:1009100075F0087D007E007F003392D530D503123C
:100920000A47EC334010EF33FFEE33FEED33FDECBE
:1009300033FCD5F0ED22E5F0247EA2D513CC92E76E
:10094000CDCEFF22EDD2E7CD33EC3392D5248140DA
:1009500006E4FFFEFDFC22FCE4CFCECDCC24E0502B
:100960001174FF80EDC3CC13CCCD13CDCE13CECFFD
:1009700013CF0470F030D5DE020A47E9D2E7C9335D
:10098000E833F892D5EDD2E7CD33EC33FC5002B228
:10099000D522EC30E7100FBF000C0EBE00080DBDD5
:1009A00000040BEB6014A2D5EB13FCED92E7FD22E3
:1009B00074FFFCFDFEFF22E480F8A2D574FF13FC57
:1009C0007D80E480EFBB010CE58229F582E5833A66
:1009D000F583E0225006E92582F8E622BBFE06E90F
:1009E0002582F8E222E58229F582E5833AF583E45F
:1009F0009322BC000BBE0029EF8DF084FFADF022E6
:100A0000E4CCF875F008EF2FFFEE33FEEC33FCEE8C
:100A10009DEC984005FCEE9DFE0FD5F0E9E4CEFD7F
:100A200022EDF8F5F0EE8420D21CFEADF075F00852
:100A3000EF2FFFED33FD4007985006D5F0F222C3AB
:100A400098FD0FD5F0EA22C3E49FFFE49EFEE49DEB
:100A5000FDE49CFC22120ADD30B01175A0FF30B01D
:100A60001C15A07F0A7E00120BA380F2E4F5A020E3
:100A7000B00B05A07F0A7E00120BA380F285A008B0
:100A8000AC08E4120910E4FBFA79FA783F12080086
:100A90001209448E098F0A7C007D641209F2EF244A
:100AA00030FB7D017F01120BFAAE09AF0A7C007D9D
:100AB000641209F27E007F0ACFCDCFCECCCE1209D0
:100AC000F2EF2430FF120C23AE09AF0A7C007D0A3E
:100AD0001209F2ED2430FF120C23020A58C280C220
:100AE000817F147E00120BA37F03120BE9D281C217
:100AF000817F057E00120BA37F03120BE9D281C216
:100B0000817F64120C3F7F03120BE9D281C2817F87
:100B1000017E00120BA37F02120BE9D281C2811F5A
:100B20007E00120BA37F28120B637F0C120B637FD6
:100B300001120B637F06020B638B128A138914EF79
:100B400075F008A42440FF120B63E4FDAB12AA1356
:100B5000A9148D827583001209C5FF120C230DBDE7
:100B600008EA22AE07C280120BE2D281C281EF24D2
:100B7000FE60030470077F027E00020BA37F251234
:100B80000C3F228B0C8A0D890EE4FDAB0CAA0DA93B
:100B90000E8D827583001209C5FF6006120C230DAD
:100BA00080E922E4FDFCC3ED9FEC9E5015E4FBFAC6
:100BB0000BBB00010AEB647B4A70F50DBD00010C14
:100BC00080E4228B0F8A108911BF01047F8080028C
:100BD0007FC0ED142FFF120B63AB0FAA10A91102F7
:100BE0000B83120C11D281C281EFA2E39287A2E2A1
:100BF0009286A2E19285139284228B0BBF01047F1F
:100C00008080027FC0ED142FFF120B63AF0B020C2C
:100C100023EF339287EFA2E69286A2E59285A2E4C3
:100C2000928422AE07D280120BE2D281C2817F2948
:100C3000020C3F787FE4F6D8FD758114020A55AEA8
:060C4000071FEE70FA220E
:00000001FF
