:0308B00001080A32
:10088C005389F0438901758C3C758AB0D2A9D2AFDB
:04089C00D28C80FE7C
:03000B000208A048
:1008A000758C3C758AB0D5080675080A63A0FF32BE
:03000000020800F3
:0C080000787FE4F6D8FD758108020847F7
:10080C0002088CE493A3F8E493A34003F68001F26E
:10081C0008DFF48029E493A3F85407240CC8C333ED
:10082C00C4540F4420C8834004F456800146F6DFBC
:10083C00E4800B01020408102040809008B0E47E94
:10084C00019360BCA3FF543F30E509541FFEE493B1
:10085C00A360010ECF54C025E060A840B8E493A378
:10086C00FAE493A3F8E493A3C8C582C8CAC583CAA3
:10087C00F0A3C8C582C8CAC583CADFE9DEE780BE5B
:0108B3000044
:00000001FF
