:100851001208D87D55E4FFFE1208007DAA7F017EB3
:0E08610000120800E4FFFE12086F8F9080FE68
:100800008E088F098D0AC2A37F0612088DD2A3C25B
:10081000A37F0212088DE508FF12088DAF09E509D4
:1008200012088DAF0A12088DD2A31208BBEF70FA1E
:0108300022A5
:0708D800D2A3C2A0D2A222AC
:1008BB00C2A37F0512088D1208A6D2A3EF5401FF25
:0108CB00220A
:04086F008E088F0957
:10087300C2A37F0312088DE508FF12088DAF09E5B7
:090883000912088D1208A6D2A387
:01088C002249
:10088D00E4FEEF30E704D2A18002C2A1D2A0EF2591
:08089D00E0FFC2A00EBE08EA54
:0108A5002230
:1008A600E4FEEF25E0FFD2A030A203430701C2A079
:0408B6000EBE08EE7C
:0108BA00221B
:10083100E4FDFCC3ED9FEC9E5015E4FBFA0BBB00FD
:0F084100010AEB647B4A70F50DBD00010C80E4E9
:010850002285
:030000000208CC27
:0C08CC00787FE4F6D8FD75810A0208511F
:00000001FF
