:10090F00D2A05389F0438901D2A9D2AF8E0E8F0F97
:10091F00E50EC313F50AE50F13F50BC3E50F950BA2
:10092F00F509E50E950AF508AE0AAF0BAB07AA0657
:10093F00E4C39BFFE49AFE74019400FDE49400FC71
:10094F0078081208CE8F10E4C39BFFE48F11AE0816
:10095F00AF09AB07AA06C39BFFE49AFE740194008C
:10096F00FDE49400FC78081208CE8F0CE4C39BFFC3
:10097F00E48F0DAE0AAF0BAB07AA06C39BFFE49A39
:10098F00FE74019400FDE49400FC78081208CE8FE9
:0C099F008CAF0BAB07E4C39BFF8F8A22D8
:030AA400D28C22CF
:030AA700C28C22DC
:1009AB00EF7005C2A0C2A922BF6405D2A0C2A922C2
:1009BB00AC0EAD0F7E001208E2E47B64FAF9F8127C
:1009CB00083C8E0A8F0BC3E50F950BF509E50E95C9
:1009DB000AF508AB07AA06E4C39BFFE49AFE740171
:1009EB009400FDE49400FC78081208CE8F10E4C349
:1009FB009BFFE48F11AE08AF09AB07AA06C39BFFA1
:100A0B00E49AFE74019400FDE49400FC780812084B
:0C0A1B00CE8F0CE4C39BFF8F0DD2A922EC
:100A2700E4F512F5137FE87E0312090FE4FF1209BC
:100A3700AB120AA47FF47E01120A65E512700E0557
:100A4700130513E513B4640F751201800A15131506
:0E0A570013E5137002F512AF131209AB80D62F
:03000B00020A8561
:100A8500B2A020A007850C8C850D8A3285108C8537
:030A9500118A3291
:100A6500E4FDFCC3ED9FEC9E5015E4FBFA0BBB00C7
:0F0A7500010AEB647B4A70F50DBD00010C80E4B3
:010A8400224F
:03000000020A9859
:0C0A9800787FE4F6D8FD758113020A2770
:1008000075F008758200EF2FFFEE33FECD33CDCCAF
:1008100033CCC58233C5829BED9AEC99E582984032
:100820000CF582EE9BFEED9AFDEC99FC0FD5F0D60F
:10083000E4CEFBE4CDFAE4CCF9A88222B800C1B939
:100840000059BA002DEC8BF084CFCECDFCE5F0CB77
:10085000F97818EF2FFFEE33FEED33FDEC33FCEBB0
:1008600033FB10D703994004EB99FB0FD8E5E4F96B
:10087000FA227818EF2FFFEE33FEED33FDEC33FC58
:10088000C933C910D7059BE99A4007EC9BFCE99A4C
:10089000F90FD8E0E4C9FAE4CCFB2275F010EF2F91
:1008A000FFEE33FEED33FDCC33CCC833C810D70791
:1008B0009BEC9AE899400AED9BFDEC9AFCE899F8CC
:0E08C0000FD5F0DAE4CDFBE4CCFAE4C8F9225F
:1008CE00E86010ECA2E713FCED13FDEE13FEEF1340
:0408DE00FFD8F0222D
:1008E200EC8EF0A4CCC5F0CCCDF8EFA4CEC5F02DA3
:1008F200FDE43CFCE8A42EC8C5F03DFDE43CFCEF61
:0D090200A4FFE5F028FEE43DFDE43CFC22EE
:00000001FF
