:100A21004E676174206E676F61692038004E67619F
:0A0A310074206E676F6169203100C8
:030ABD0001124ED5
:10088C00EFC454F0F50FEF54F0F510120A9CAF12B0
:10089C00120A6D7F017E001209E3E510440CFF1271
:1008AC000A6D7F017E001209E3E5104408FF120A6D
:1008BC006D7F017E001209E3E50F440CFF120A6DF7
:1008CC007F017E001209E3E50F4408FF120A6D7FD9
:0908DC00017E001209E3020AB1D9
:10093500EFC454F0F510EF54F0F511120A9CAF1204
:10094500120A6DE511440DFF120A6DE5114409FF08
:10095500120A6DE510440DFF120A6DE5104409FFFA
:06096500120A6D020AB146
:10099B008B0D8A0E890FAB0DAA0EA90F120A54608C
:1009AB0013050FE50F7002050E14F9120A54FF120E
:0509BB00093580E22275
:0C0A90007F0112088C7F017E000209E348
:100A3B007F0212088C7F2812088C7F0C12088C7F87
:090A4B000612088C7F0102088CE0
:08096B007D017C007F017E008C
:10097300ED64014C7010ED247EFDE43CCD2FF50EAB
:10098300ED3EF50D800DEF243FFFE43EF50DEF4402
:0809930080F50EAF0E02088C86
:100A030075A884C28AC297C296C295C294120A3B41
:0E0A130012096B7BFF7A0A792112099B80FE83
:030013000208E5FB
:1008E500C0E0C0F0C083C082C0D075D000C000C0D9
:1008F50001C002C003C004C005C006C007B29512FE
:100905000A9012096B7BFF7A0A792E12099B7FD018
:100915007E071209E3D007D006D005D004D003D056
:1009250002D001D000D0D0D082D083D0F0D0E03238
:050AB800D286D2872266
:070A9C00D286C287C2862248
:0C0A8300D287D286A2879201C286A2010F
:010A8F002244
:100A6D00E4FEEF339287D286C286EF25E0FF0EBEFD
:050A7D0008F0120A83DD
:010A82002251
:070AA300C287D286C2862241
:070AAA00D287D286C286222A
:1009C000E4FFFED287D286EF25E0FF30870343079E
:1009D00001C2860EBE08EC300205120AA380031283
:0209E0000AAA61
:0109E20022F2
:070AB100C287D286D2872222
:1009E300E4FDFCC3ED9FEC9E5015E4FBFA0BBB004A
:0F09F300010AEB647B4A70F50DBD00010C80E436
:010A020022D1
:03000000020800F3
:0C080000787FE4F6D8FD758120020847DF
:100A5400BB010689828A83E0225002E722BBFE02A0
:090A6400E32289828A83E49322D3
:10080C00020A03E493A3F8E493A34003F68001F2F5
:10081C0008DFF48029E493A3F85407240CC8C333ED
:10082C00C4540F4420C8834004F456800146F6DFBC
:10083C00E4800B0102040810204080900ABDE47E85
:10084C00019360BCA3FF543F30E509541FFEE493B1
:10085C00A360010ECF54C025E060A840B8E493A378
:10086C00FAE493A3F8E493A3C8C582C8CAC583CAA3
:10087C00F0A3C8C582C8CAC583CADFE9DEE780BE5B
:010AC0000035
:00000001FF
