:10092600EF3392A7EFA2E692A6A2E592A5A2E492E1
:02093600A422F9
:0708E100120926D2A2C2A2F7
:1008E800EFA2E392A7A2E292A6A2E192A51392A494
:0108F80022DD
:07097500AE071FEE70FA222D
:1008F900D2A7C2A0D2A1C2A2D2A2A2A79200C2A28A
:07090900D2A22000F1C2A2FE
:0109100022C4
:10080000C2A0C2A2C2A17F147E001208A67F03125A
:1008100008E8D2A2C2A27F057E001208A67F0312BA
:1008200008E8D2A2C2A27F641209757F031208E809
:10083000D2A2C2A21208F91F1208E8D2A2C2A21FB5
:100840007E001208A67F281209497F0C1209497FF1
:09085000011209497F0602094961
:10094900AE07C2A1C2A01208E1D2A2C2A20208F94E
:10095900AE07C2A1D2A01208E1D2A2C2A20208F92E
:0408C600AE07AC03CA
:1008CA00EF640170047F8080027FC0ED142FFF1255
:0708DA000949AF04020959AE
:060886008B088A09890AB3
:10088C00E4FDAB08AA09A90A8D82758300120859E8
:09089C00FF60061209590D80E904
:0108A5002230
:10091100EF640170047F8080027FC0ED142FFF120D
:050921000949020886EF
:100938001208007F411209597B627D017F0202087B
:01094800C6E8
:1008A600E4FDFCC3ED9FEC9E5015E4FBFA0BBB0088
:0F08B600010AEB647B4A70F50DBD00010C80E474
:0108C5002210
:0300000002096989
:0C096900787FE4F6D8FD75812002093883
:10085900BB010CE58229F582E5833AF583E0225054
:1008690006E92582F8E622BBFE06E92582F8E2229E
:0D087900E58229F582E5833AF583E49322B8
:00000001FF
