:10080000300011D2CA7F017E0012084BC2CAD290BA
:100810007F03800FD2CA7F037E0012084BC2CAD268
:09082000907F017E0012084B22BA
:02086B008F09F3
:10086D00E4F50AE509339200120800E50925E0F5E3
:0A087D0009050AE50AC3940840E9E2
:01088700224E
:10082900E4F5C875C90275CBFF75CAB175CDFF75F9
:10083900CCB1AF0812086B05087FC87E0012084BBF
:0208490080F03D
:10084B00E4FDFCC3ED9FEC9E5015E4FBFA0BBB00E3
:0F085B00010AEB647B4A70F50DBD00010C80E4CF
:01086A00226B
:030000000208886B
:0C088800787FE4F6D8FD75812002082975
:00000001FF
