:10086700E4F50AC3E50A94027480948050F2E4F533
:100877000BC3E50B94087480948050287408250AEC
:10088700F8E625E04401FF7408250AF8A6077B006F
:100897007A0079087D021208007FF47E011208DCD5
:0808A700050B80CD050A80BBA2
:1008DC00E4FDFCC3ED9FEC9E5015E4FBFA0BBB0052
:0F08EC00010AEB647B4A70F50DBD00010C80E43E
:0108FB0022DA
:080800008B0C8A0D890E8D0F8F
:10080800E4F510E510C3950F5050AB0C7C00E50ED5
:10081800250FF9EC350DFAC3E99510F9EA9400FAB9
:1008280090FFFF1208AFFDE4FBEBC39408748094BB
:100838008050237E007480A803088006CEA2E713A8
:10084800CE13D8F8FFEDF582EF558224FF92A1C2AE
:0E085800A0D2A00B80D3051080A9C2A2D2A20C
:01086600226F
:030000000208FCF7
:0C08FC00787FE4F6D8FD758110020867D3
:1008AF00BB010CE58229F582E5833AF583E02250FE
:1008BF0006E92582F8E622BBFE06E92582F8E22248
:0D08CF00E58229F582E5833AF583E4932262
:00000001FF
