:10080000E4F508F509AE08AF097C007D0A12086915
:100810008D0AAE08AF097C007D641208697E007FF6
:100820000ACFCDCFCECCCE1208698F0BAE08AF0960
:100830007C007D641208698F0CE50BC454F0F50D43
:10084000E50A420D850DA0850CB07F2C7E011208B3
:10085000BE0509E50970020508AE08FF7C037DE8C6
:090860001208698C088D09809CC6
:1008BE00E4FDFCC3ED9FEC9E5015E4FBFA0BBB0070
:0F08CE00010AEB647B4A70F50DBD00010C80E45C
:0108DD0022F8
:030000000208DE15
:0C08DE00787FE4F6D8FD75810D0208005B
:10086900BC000BBE0029EF8DF084FFADF022E4CC73
:10087900F875F008EF2FFFEE33FEEC33FCEE9DEC3C
:10088900984005FCEE9DFE0FD5F0E9E4CEFD22ED82
:10089900F8F5F0EE8420D21CFEADF075F008EF2FCC
:1008A900FFED33FD4007985006D5F0F222C398FDBD
:0508B9000FD5F0EA225A
:00000001FF
