:0308FD00F50AFFFA
:0C0900008F993099FDC299C2B2D2B22288
:10080000C29EC29FE4F5087FFF1209007F2C7E0183
:100810001208DDE4FF1209007F907E011208DD0559
:1008200008E508C3940540DFE4F5097FAA12090032
:100830007F2C7E011208DD7F551209007F2C7E017E
:100840001208DD0509E509C3940540DFE4F50975E3
:100850000A01AF09E50AA807088002C333D8FC12D1
:1008600008FD7F2C7E011208DD0509E509C3940807
:1008700040DDE4F509750A80AF09E50AA80708809C
:1008800002C313D8FC1208FD7F2C7E011208DD057F
:1008900009E509C3940840DDE4F509E50A25E044CB
:1008A00001F50AFF1209007F2C7E011208DD0509FF
:1008B000E509C3940840E4E4F50AF509E509C394A1
:1008C000084003020804E50AC3134480F50AFF1236
:0D08D00009007F2C7E011208DD050980DF84
:1008DD00E4FDFCC3ED9FEC9E5015E4FBFA0BBB0051
:0F08ED00010AEB647B4A70F50DBD00010C80E43D
:0108FC0022D9
:0300000002090CE6
:0C090C00787FE4F6D8FD75810A0208002F
:00000001FF
