:0300000002088A69
:10080000BB010CE58229F582E5833AF583E02250AD
:1008100006E92582F8E622BBFE06E92582F8E222F7
:10082000E58229F582E5833AF583E493221208767E
:1008300020900F7F147E001208567F011208963018
:1008400090FD2091EB7F147E00120856E4FF120801
:10085000962091DC80FBE4FDFCC3ED9FEC9E5015DF
:10086000E4FBFA0BBB00010AEB64714A70F50DBDA5
:1008700000010C80E422C29FD29E53890F4389203D
:10088000758DFDD28ED299D29C22787FE4F6D8FD68
:0E08900075810702082D3099FDC2998F9922BB
:00000001FF
