:030000000208BE35
:100800001208AA7BFF7A0879871208631208D2EFD0
:1008100060FA1208D88F0874E02508F5087BFF7A83
:100820000879A2120863AF081208CA7BFF7A087918
:10083000A712086380CDBB010CE58229F582E58310
:100840003AF583E0225006E92582F8E622BBFE064F
:10085000E92582F8E222E58229F582E5833AF583EB
:10086000E493228B098A0A890BE4FEAB09AA0AA940
:100870000BEEFD3395E08D82F583120836FF60069E
:100880001208CA0E80E5224E6861702076616F20E2
:100890006B7920747520696E207468756F6E673A85
:1008A00020002D2D3E3E000D0A00C29FD29E53898E
:1008B0000F438920758DFDD28ED299D29C22787FEC
:1008C000E4F6D8FD75810B0208003099FDC2998FBE
:0D08D0009922A298E433FF22C298AF99222A
:00000001FF
